{
  "contractName": "Record",
  "abi": [
    {
      "anonymous": false,
      "inputs": [
        {
          "indexed": false,
          "internalType": "uint256",
          "name": "id",
          "type": "uint256"
        }
      ],
      "name": "NewRecord",
      "type": "event"
    },
    {
      "inputs": [
        {
          "internalType": "uint256",
          "name": "",
          "type": "uint256"
        }
      ],
      "name": "recordToOwner",
      "outputs": [
        {
          "internalType": "address",
          "name": "",
          "type": "address"
        }
      ],
      "stateMutability": "view",
      "type": "function",
      "constant": true
    },
    {
      "inputs": [
        {
          "internalType": "uint256",
          "name": "",
          "type": "uint256"
        }
      ],
      "name": "records",
      "outputs": [
        {
          "internalType": "uint256",
          "name": "",
          "type": "uint256"
        }
      ],
      "stateMutability": "view",
      "type": "function",
      "constant": true
    },
    {
      "inputs": [
        {
          "internalType": "uint256",
          "name": "_recordHash",
          "type": "uint256"
        }
      ],
      "name": "storeRecord",
      "outputs": [],
      "stateMutability": "nonpayable",
      "type": "function"
    },
    {
      "inputs": [
        {
          "internalType": "uint256",
          "name": "_id",
          "type": "uint256"
        },
        {
          "internalType": "uint256",
          "name": "_newRecordHash",
          "type": "uint256"
        }
      ],
      "name": "updateRecord",
      "outputs": [],
      "stateMutability": "nonpayable",
      "type": "function"
    },
    {
      "inputs": [
        {
          "internalType": "uint256",
          "name": "_recordHash",
          "type": "uint256"
        }
      ],
      "name": "checkRecord",
      "outputs": [
        {
          "internalType": "bool",
          "name": "",
          "type": "bool"
        }
      ],
      "stateMutability": "view",
      "type": "function",
      "constant": true
    },
    {
      "inputs": [
        {
          "internalType": "uint256",
          "name": "_id",
          "type": "uint256"
        }
      ],
      "name": "getRecord",
      "outputs": [
        {
          "internalType": "uint256",
          "name": "",
          "type": "uint256"
        }
      ],
      "stateMutability": "view",
      "type": "function",
      "constant": true
    }
  ],
  "bytecode": "0x608060405234801561001057600080fd5b506105a6806100206000396000f3fe608060405234801561001057600080fd5b50600436106100625760003560e01c806303e9e6091461006757806308859824146100975780633075b628146100c757806334461067146100f7578063667b51c714610127578063d1b3997c14610143575b600080fd5b610081600480360381019061007c919061036d565b61015f565b60405161008e91906103a9565b60405180910390f35b6100b160048036038101906100ac919061036d565b610186565b6040516100be9190610405565b60405180910390f35b6100e160048036038101906100dc919061036d565b6101b9565b6040516100ee919061043b565b60405180910390f35b610111600480360381019061010c919061036d565b61021b565b60405161011e91906103a9565b60405180910390f35b610141600480360381019061013c9190610456565b61023f565b005b61015d6004803603810190610158919061036d565b610266565b005b600080828154811061017457610173610496565b5b90600052602060002001549050919050565b60016020528060005260406000206000915054906101000a900473ffffffffffffffffffffffffffffffffffffffff1681565b600080600090505b6000805490508110156102105782600082815481106101e3576101e2610496565b5b9060005260206000200154036101fd576001915050610216565b8080610208906104f4565b9150506101c1565b50600090505b919050565b6000818154811061022b57600080fd5b906000526020600020016000915090505481565b806000838154811061025457610253610496565b5b90600052602060002001819055505050565b6000819080600181540180825580915050600190039060005260206000200160009091909190915055600060016000805490506102a3919061053c565b9050336001600083815260200190815260200160002060006101000a81548173ffffffffffffffffffffffffffffffffffffffff021916908373ffffffffffffffffffffffffffffffffffffffff1602179055507f469698a2be6ebcaa39b099479d91186ef98a55f16c7a4710a38d02c0b4d596dd8160405161032691906103a9565b60405180910390a15050565b600080fd5b6000819050919050565b61034a81610337565b811461035557600080fd5b50565b60008135905061036781610341565b92915050565b60006020828403121561038357610382610332565b5b600061039184828501610358565b91505092915050565b6103a381610337565b82525050565b60006020820190506103be600083018461039a565b92915050565b600073ffffffffffffffffffffffffffffffffffffffff82169050919050565b60006103ef826103c4565b9050919050565b6103ff816103e4565b82525050565b600060208201905061041a60008301846103f6565b92915050565b60008115159050919050565b61043581610420565b82525050565b6000602082019050610450600083018461042c565b92915050565b6000806040838503121561046d5761046c610332565b5b600061047b85828601610358565b925050602061048c85828601610358565b9150509250929050565b7f4e487b7100000000000000000000000000000000000000000000000000000000600052603260045260246000fd5b7f4e487b7100000000000000000000000000000000000000000000000000000000600052601160045260246000fd5b60006104ff82610337565b91507fffffffffffffffffffffffffffffffffffffffffffffffffffffffffffffffff8203610531576105306104c5565b5b600182019050919050565b600061054782610337565b915061055283610337565b925082821015610565576105646104c5565b5b82820390509291505056fea2646970667358221220ccb606785c891a0408845eb741be072620ce3764c8f3571641e3cac18eabb5cb64736f6c634300080e0033",
  "immutableReferences": {},
  "source": "// SPDX-License-Identifier: GPL-3.0\r\n\r\npragma solidity >=0.7.0 <0.9.0;\r\n\r\ncontract Record {\r\n\r\n    event NewRecord(uint id);\r\n    uint256[] public records;\r\n    mapping (uint => address) public recordToOwner;\r\n    mapping (address => uint) ownerRecordCount;\r\n\r\n    function storeRecord(uint256 _recordHash) public {\r\n        records.push(_recordHash);\r\n        uint id = records.length - 1;\r\n        recordToOwner[id] = msg.sender;\r\n        emit NewRecord(id);\r\n    }\r\n\r\n    function updateRecord(uint256 _id, uint256 _newRecordHash) public {\r\n        records[_id] = _newRecordHash;\r\n    }\r\n\r\n    function checkRecord(uint256 _recordHash) public view returns (bool){\r\n        for (uint i=0; i<records.length; i++) {\r\n            if (records[i] == _recordHash){\r\n                return true;\r\n            }\r\n        }\r\n        return false;\r\n    }\r\n\r\n    function getRecord(uint256 _id) public view returns (uint256){\r\n            return records[_id];\r\n    }\r\n    \r\n}",
  "sourcePath": "C:\\Users\\gefer\\Desktop\\validation-system\\contracts\\Record.sol",
  "compiler": {
    "name": "solc",
    "version": "0.8.14+commit.80d49f37.Emscripten.clang"
  },
  "schemaVersion": "3.4.16",
  "updatedAt": "2023-09-08T13:53:12.446Z",
  "networkType": "ethereum",
  "devdoc": {
    "kind": "dev",
    "methods": {},
    "version": 1
  },
  "userdoc": {
    "kind": "user",
    "methods": {},
    "version": 1
  }
}